{
  "_format": "hh-sol-artifact-1",
  "contractName": "ButovskyNFT",
  "sourceName": "contracts/ButovskyNFT.sol",
  "abi": [
    {
      "inputs": [],
      "stateMutability": "nonpayable",
      "type": "constructor"
    },
    {
      "anonymous": false,
      "inputs": [
        {
          "indexed": true,
          "internalType": "address",
          "name": "owner",
          "type": "address"
        },
        {
          "indexed": true,
          "internalType": "address",
          "name": "approved",
          "type": "address"
        },
        {
          "indexed": true,
          "internalType": "uint256",
          "name": "tokenId",
          "type": "uint256"
        }
      ],
      "name": "Approval",
      "type": "event"
    },
    {
      "anonymous": false,
      "inputs": [
        {
          "indexed": true,
          "internalType": "address",
          "name": "owner",
          "type": "address"
        },
        {
          "indexed": true,
          "internalType": "address",
          "name": "operator",
          "type": "address"
        },
        {
          "indexed": false,
          "internalType": "bool",
          "name": "approved",
          "type": "bool"
        }
      ],
      "name": "ApprovalForAll",
      "type": "event"
    },
    {
      "anonymous": false,
      "inputs": [
        {
          "indexed": false,
          "internalType": "address",
          "name": "to",
          "type": "address"
        },
        {
          "indexed": false,
          "internalType": "uint256",
          "name": "tokenId",
          "type": "uint256"
        }
      ],
      "name": "Minted",
      "type": "event"
    },
    {
      "anonymous": false,
      "inputs": [
        {
          "indexed": true,
          "internalType": "address",
          "name": "previousOwner",
          "type": "address"
        },
        {
          "indexed": true,
          "internalType": "address",
          "name": "newOwner",
          "type": "address"
        }
      ],
      "name": "OwnershipTransferred",
      "type": "event"
    },
    {
      "anonymous": false,
      "inputs": [
        {
          "indexed": true,
          "internalType": "address",
          "name": "from",
          "type": "address"
        },
        {
          "indexed": true,
          "internalType": "address",
          "name": "to",
          "type": "address"
        },
        {
          "indexed": true,
          "internalType": "uint256",
          "name": "tokenId",
          "type": "uint256"
        }
      ],
      "name": "Transfer",
      "type": "event"
    },
    {
      "inputs": [
        {
          "internalType": "uint256",
          "name": "newLimit",
          "type": "uint256"
        }
      ],
      "name": "addLimit",
      "outputs": [],
      "stateMutability": "nonpayable",
      "type": "function"
    },
    {
      "inputs": [
        {
          "internalType": "address",
          "name": "to",
          "type": "address"
        },
        {
          "internalType": "uint256",
          "name": "tokenId",
          "type": "uint256"
        }
      ],
      "name": "approve",
      "outputs": [],
      "stateMutability": "nonpayable",
      "type": "function"
    },
    {
      "inputs": [
        {
          "internalType": "address",
          "name": "owner",
          "type": "address"
        }
      ],
      "name": "balanceOf",
      "outputs": [
        {
          "internalType": "uint256",
          "name": "",
          "type": "uint256"
        }
      ],
      "stateMutability": "view",
      "type": "function"
    },
    {
      "inputs": [
        {
          "internalType": "uint256",
          "name": "tokenId",
          "type": "uint256"
        }
      ],
      "name": "burn",
      "outputs": [],
      "stateMutability": "nonpayable",
      "type": "function"
    },
    {
      "inputs": [],
      "name": "checkNotClaimed",
      "outputs": [
        {
          "internalType": "bool",
          "name": "",
          "type": "bool"
        }
      ],
      "stateMutability": "view",
      "type": "function"
    },
    {
      "inputs": [
        {
          "internalType": "uint256",
          "name": "tokenId",
          "type": "uint256"
        }
      ],
      "name": "getApproved",
      "outputs": [
        {
          "internalType": "address",
          "name": "",
          "type": "address"
        }
      ],
      "stateMutability": "view",
      "type": "function"
    },
    {
      "inputs": [],
      "name": "getTokenCount",
      "outputs": [
        {
          "internalType": "uint256",
          "name": "",
          "type": "uint256"
        }
      ],
      "stateMutability": "view",
      "type": "function"
    },
    {
      "inputs": [],
      "name": "getTokenLimit",
      "outputs": [
        {
          "internalType": "uint256",
          "name": "",
          "type": "uint256"
        }
      ],
      "stateMutability": "view",
      "type": "function"
    },
    {
      "inputs": [
        {
          "internalType": "address",
          "name": "owner",
          "type": "address"
        },
        {
          "internalType": "address",
          "name": "operator",
          "type": "address"
        }
      ],
      "name": "isApprovedForAll",
      "outputs": [
        {
          "internalType": "bool",
          "name": "",
          "type": "bool"
        }
      ],
      "stateMutability": "view",
      "type": "function"
    },
    {
      "inputs": [],
      "name": "name",
      "outputs": [
        {
          "internalType": "string",
          "name": "",
          "type": "string"
        }
      ],
      "stateMutability": "view",
      "type": "function"
    },
    {
      "inputs": [],
      "name": "owner",
      "outputs": [
        {
          "internalType": "address",
          "name": "",
          "type": "address"
        }
      ],
      "stateMutability": "view",
      "type": "function"
    },
    {
      "inputs": [
        {
          "internalType": "uint256",
          "name": "tokenId",
          "type": "uint256"
        }
      ],
      "name": "ownerOf",
      "outputs": [
        {
          "internalType": "address",
          "name": "",
          "type": "address"
        }
      ],
      "stateMutability": "view",
      "type": "function"
    },
    {
      "inputs": [],
      "name": "renounceOwnership",
      "outputs": [],
      "stateMutability": "nonpayable",
      "type": "function"
    },
    {
      "inputs": [],
      "name": "safeMint",
      "outputs": [],
      "stateMutability": "nonpayable",
      "type": "function"
    },
    {
      "inputs": [
        {
          "internalType": "address",
          "name": "from",
          "type": "address"
        },
        {
          "internalType": "address",
          "name": "to",
          "type": "address"
        },
        {
          "internalType": "uint256",
          "name": "tokenId",
          "type": "uint256"
        }
      ],
      "name": "safeTransferFrom",
      "outputs": [],
      "stateMutability": "nonpayable",
      "type": "function"
    },
    {
      "inputs": [
        {
          "internalType": "address",
          "name": "from",
          "type": "address"
        },
        {
          "internalType": "address",
          "name": "to",
          "type": "address"
        },
        {
          "internalType": "uint256",
          "name": "tokenId",
          "type": "uint256"
        },
        {
          "internalType": "bytes",
          "name": "data",
          "type": "bytes"
        }
      ],
      "name": "safeTransferFrom",
      "outputs": [],
      "stateMutability": "nonpayable",
      "type": "function"
    },
    {
      "inputs": [
        {
          "internalType": "address",
          "name": "operator",
          "type": "address"
        },
        {
          "internalType": "bool",
          "name": "approved",
          "type": "bool"
        }
      ],
      "name": "setApprovalForAll",
      "outputs": [],
      "stateMutability": "nonpayable",
      "type": "function"
    },
    {
      "inputs": [
        {
          "internalType": "bytes4",
          "name": "interfaceId",
          "type": "bytes4"
        }
      ],
      "name": "supportsInterface",
      "outputs": [
        {
          "internalType": "bool",
          "name": "",
          "type": "bool"
        }
      ],
      "stateMutability": "view",
      "type": "function"
    },
    {
      "inputs": [],
      "name": "symbol",
      "outputs": [
        {
          "internalType": "string",
          "name": "",
          "type": "string"
        }
      ],
      "stateMutability": "view",
      "type": "function"
    },
    {
      "inputs": [
        {
          "internalType": "uint256",
          "name": "tokenId",
          "type": "uint256"
        }
      ],
      "name": "tokenURI",
      "outputs": [
        {
          "internalType": "string",
          "name": "",
          "type": "string"
        }
      ],
      "stateMutability": "view",
      "type": "function"
    },
    {
      "inputs": [
        {
          "internalType": "address",
          "name": "from",
          "type": "address"
        },
        {
          "internalType": "address",
          "name": "to",
          "type": "address"
        },
        {
          "internalType": "uint256",
          "name": "tokenId",
          "type": "uint256"
        }
      ],
      "name": "transferFrom",
      "outputs": [],
      "stateMutability": "nonpayable",
      "type": "function"
    },
    {
      "inputs": [
        {
          "internalType": "address",
          "name": "newOwner",
          "type": "address"
        }
      ],
      "name": "transferOwnership",
      "outputs": [],
      "stateMutability": "nonpayable",
      "type": "function"
    }
  ],
  "bytecode": "0x60806040526064600a556040518061014001604052806040518060400160405280600781526020017f417665726167650000000000000000000000000000000000000000000000000081525081526020016040518060400160405280600781526020017f5479706963616c0000000000000000000000000000000000000000000000000081525081526020016040518060400160405280600881526020017f4f7264696e61727900000000000000000000000000000000000000000000000081525081526020016040518060400160405280600581526020017f457874726100000000000000000000000000000000000000000000000000000081525081526020016040518060400160405280600981526020017f4c6567656e64617279000000000000000000000000000000000000000000000081525081526020016040518060400160405280600b81526020017f457870657269656e63656400000000000000000000000000000000000000000081525081526020016040518060400160405280600581526020017f47726f776e00000000000000000000000000000000000000000000000000000081525081526020016040518060400160405280600681526020017f53656e696f72000000000000000000000000000000000000000000000000000081525081526020016040518060400160405280600681526020017f4d6964646c65000000000000000000000000000000000000000000000000000081525081526020016040518060400160405280600681526020017f4a756e696f720000000000000000000000000000000000000000000000000000815250815250600b90600a6200027392919062000b57565b506040518061014001604052806040518060400160405280600581526020017f416e696d6500000000000000000000000000000000000000000000000000000081525081526020016040518060400160405280600681526020017f47616d696e67000000000000000000000000000000000000000000000000000081525081526020016040518060400160405280600781526020017f576f726b6f75740000000000000000000000000000000000000000000000000081525081526020016040518060400160405280600581526020017f4d7573696300000000000000000000000000000000000000000000000000000081525081526020016040518060400160405280600681526020017f54696b746f6b000000000000000000000000000000000000000000000000000081525081526020016040518060400160405280600581526020017f4d6f76696500000000000000000000000000000000000000000000000000000081525081526020016040518060400160405280600681526020017f436f64696e67000000000000000000000000000000000000000000000000000081525081526020016040518060400160405280600481526020017f4d656d650000000000000000000000000000000000000000000000000000000081525081526020016040518060400160405280600781526020017f436172746f6f6e0000000000000000000000000000000000000000000000000081525081526020016040518060400160405280600a81526020017f4e6574776f726b696e6700000000000000000000000000000000000000000000815250815250600c90600a620004de92919062000b57565b506040518061014001604052806040518060400160405280600381526020017f46616e000000000000000000000000000000000000000000000000000000000081525081526020016040518060400160405280600781526020017f456e6a6f7965720000000000000000000000000000000000000000000000000081525081526020016040518060400160405280600a81526020017f456e74687573696173740000000000000000000000000000000000000000000081525081526020016040518060400160405280600681526020017f4d6173746572000000000000000000000000000000000000000000000000000081525081526020016040518060400160405280600581526020017f416465707400000000000000000000000000000000000000000000000000000081525081526020016040518060400160405280600481526020017f477572750000000000000000000000000000000000000000000000000000000081525081526020016040518060400160405280600681526020017f457870657274000000000000000000000000000000000000000000000000000081525081526020016040518060400160405280600881526020017f4164766f6361746500000000000000000000000000000000000000000000000081525081526020016040518060400160405280600a81526020017f526573656172636865720000000000000000000000000000000000000000000081525081526020016040518060400160405280600581526020017f4861746572000000000000000000000000000000000000000000000000000000815250815250600d90600a6200074992919062000b57565b506040518061014001604052806040518060400160405280600581526020017f626c61636b00000000000000000000000000000000000000000000000000000081525081526020016040518060400160405280600381526020017f726564000000000000000000000000000000000000000000000000000000000081525081526020016040518060400160405280600581526020017f677265656e00000000000000000000000000000000000000000000000000000081525081526020016040518060400160405280600481526020017f626c75650000000000000000000000000000000000000000000000000000000081525081526020016040518060400160405280600581526020017f6f6c69766500000000000000000000000000000000000000000000000000000081525081526020016040518060400160405280600681526020017f6f72616e6765000000000000000000000000000000000000000000000000000081525081526020016040518060400160405280600681526020017f707572706c65000000000000000000000000000000000000000000000000000081525081526020016040518060400160405280600881526020017f6461726b626c756500000000000000000000000000000000000000000000000081525081526020016040518060400160405280600681526020017f6d61726f6f6e000000000000000000000000000000000000000000000000000081525081526020016040518060400160405280600781526020017f6d6167656e746100000000000000000000000000000000000000000000000000815250815250600e90600a620009b492919062000b57565b50348015620009c257600080fd5b506040518060400160405280600c81526020017f4275746f76736b79204e465400000000000000000000000000000000000000008152506040518060400160405280600381526020017f4244540000000000000000000000000000000000000000000000000000000000815250816000908051906020019062000a4792919062000bbe565b50806001908051906020019062000a6092919062000bbe565b50505062000a8362000a7762000a8960201b60201c565b62000a9160201b60201c565b62000d41565b600033905090565b6000600760009054906101000a900473ffffffffffffffffffffffffffffffffffffffff16905081600760006101000a81548173ffffffffffffffffffffffffffffffffffffffff021916908373ffffffffffffffffffffffffffffffffffffffff1602179055508173ffffffffffffffffffffffffffffffffffffffff168173ffffffffffffffffffffffffffffffffffffffff167f8be0079c531659141344cd1fd0a4f28419497f9722a3daafe3b4186f6b6457e060405160405180910390a35050565b82805482825590600052602060002090810192821562000bab579160200282015b8281111562000baa57825182908051906020019062000b9992919062000bbe565b509160200191906001019062000b78565b5b50905062000bba919062000c4f565b5090565b82805462000bcc9062000d0b565b90600052602060002090601f01602090048101928262000bf0576000855562000c3c565b82601f1062000c0b57805160ff191683800117855562000c3c565b8280016001018555821562000c3c579182015b8281111562000c3b57825182559160200191906001019062000c1e565b5b50905062000c4b919062000c77565b5090565b5b8082111562000c73576000818162000c69919062000c96565b5060010162000c50565b5090565b5b8082111562000c9257600081600090555060010162000c78565b5090565b50805462000ca49062000d0b565b6000825580601f1062000cb8575062000cd9565b601f01602090049060005260206000209081019062000cd8919062000c77565b5b50565b7f4e487b7100000000000000000000000000000000000000000000000000000000600052602260045260246000fd5b6000600282049050600182168062000d2457607f821691505b6020821081141562000d3b5762000d3a62000cdc565b5b50919050565b613d5c8062000d516000396000f3fe608060405234801561001057600080fd5b50600436106101425760003560e01c806370a08231116100b8578063a22cb4651161007c578063a22cb4651461033d578063b88d4fde14610359578063c87b56dd14610375578063dd9feacf146103a5578063e985e9c5146103c3578063f2fde38b146103f357610142565b806370a08231146102a9578063715018a6146102d957806378a89567146102e35780638da5cb5b1461030157806395d89b411461031f57610142565b8063284855861161010a57806328485586146101fd57806342842e0e1461021b57806342966c68146102375780636352211e14610253578063674094b9146102835780636871ee401461029f57610142565b806301ffc9a71461014757806306fdde0314610177578063081812fc14610195578063095ea7b3146101c557806323b872dd146101e1575b600080fd5b610161600480360381019061015c919061229d565b61040f565b60405161016e91906122e5565b60405180910390f35b61017f6104f1565b60405161018c9190612399565b60405180910390f35b6101af60048036038101906101aa91906123f1565b610583565b6040516101bc919061245f565b60405180910390f35b6101df60048036038101906101da91906124a6565b6105c9565b005b6101fb60048036038101906101f691906124e6565b6106e1565b005b610205610741565b6040516102129190612548565b60405180910390f35b610235600480360381019061023091906124e6565b61074b565b005b610251600480360381019061024c91906123f1565b61076b565b005b61026d600480360381019061026891906123f1565b6107c7565b60405161027a919061245f565b60405180910390f35b61029d600480360381019061029891906123f1565b610879565b005b6102a7610897565b005b6102c360048036038101906102be9190612563565b610997565b6040516102d09190612548565b60405180910390f35b6102e1610a4f565b005b6102eb610a63565b6040516102f89190612548565b60405180910390f35b610309610a74565b604051610316919061245f565b60405180910390f35b610327610a9e565b6040516103349190612399565b60405180910390f35b610357600480360381019061035291906125bc565b610b30565b005b610373600480360381019061036e9190612731565b610b46565b005b61038f600480360381019061038a91906123f1565b610ba8565b60405161039c9190612399565b60405180910390f35b6103ad610bba565b6040516103ba91906122e5565b60405180910390f35b6103dd60048036038101906103d891906127b4565b610bcc565b6040516103ea91906122e5565b60405180910390f35b61040d60048036038101906104089190612563565b610c60565b005b60007f80ac58cd000000000000000000000000000000000000000000000000000000007bffffffffffffffffffffffffffffffffffffffffffffffffffffffff1916827bffffffffffffffffffffffffffffffffffffffffffffffffffffffff191614806104da57507f5b5e139f000000000000000000000000000000000000000000000000000000007bffffffffffffffffffffffffffffffffffffffffffffffffffffffff1916827bffffffffffffffffffffffffffffffffffffffffffffffffffffffff1916145b806104ea57506104e982610ce4565b5b9050919050565b60606000805461050090612823565b80601f016020809104026020016040519081016040528092919081815260200182805461052c90612823565b80156105795780601f1061054e57610100808354040283529160200191610579565b820191906000526020600020905b81548152906001019060200180831161055c57829003601f168201915b5050505050905090565b600061058e82610d4e565b6004600083815260200190815260200160002060009054906101000a900473ffffffffffffffffffffffffffffffffffffffff169050919050565b60006105d4826107c7565b90508073ffffffffffffffffffffffffffffffffffffffff168373ffffffffffffffffffffffffffffffffffffffff161415610645576040517f08c379a000000000000000000000000000000000000000000000000000000000815260040161063c906128c7565b60405180910390fd5b8073ffffffffffffffffffffffffffffffffffffffff16610664610d99565b73ffffffffffffffffffffffffffffffffffffffff16148061069357506106928161068d610d99565b610bcc565b5b6106d2576040517f08c379a00000000000000000000000000000000000000000000000000000000081526004016106c990612959565b60405180910390fd5b6106dc8383610da1565b505050565b6106f26106ec610d99565b82610e5a565b610731576040517f08c379a0000000000000000000000000000000000000000000000000000000008152600401610728906129eb565b60405180910390fd5b61073c838383610eef565b505050565b6000600a54905090565b61076683838360405180602001604052806000815250610b46565b505050565b61077c610776610d99565b82610e5a565b6107bb576040517f08c379a00000000000000000000000000000000000000000000000000000000081526004016107b2906129eb565b60405180910390fd5b6107c481611156565b50565b6000806002600084815260200190815260200160002060009054906101000a900473ffffffffffffffffffffffffffffffffffffffff169050600073ffffffffffffffffffffffffffffffffffffffff168173ffffffffffffffffffffffffffffffffffffffff161415610870576040517f08c379a000000000000000000000000000000000000000000000000000000000815260040161086790612a57565b60405180910390fd5b80915050919050565b61088e81600a5461116290919063ffffffff16565b600a8190555050565b61089f610bba565b6108de576040517f08c379a00000000000000000000000000000000000000000000000000000000081526004016108d590612ae9565b60405180910390fd5b60006108e8610a63565b9050600a5481111561092f576040517f08c379a000000000000000000000000000000000000000000000000000000000815260040161092690612b7b565b60405180910390fd5b600061093a82611178565b905061094633836111e5565b6109508282611203565b7f30385c845b448a36257a6a1716e6ad2e1bc2cbe333cde1e69fe849ad6511adfe3383604051610981929190612b9b565b60405180910390a16109936008611277565b5050565b60008073ffffffffffffffffffffffffffffffffffffffff168273ffffffffffffffffffffffffffffffffffffffff161415610a08576040517f08c379a00000000000000000000000000000000000000000000000000000000081526004016109ff90612c36565b60405180910390fd5b600360008373ffffffffffffffffffffffffffffffffffffffff1673ffffffffffffffffffffffffffffffffffffffff168152602001908152602001600020549050919050565b610a5761128d565b610a61600061130b565b565b6000610a6f60086113d1565b905090565b6000600760009054906101000a900473ffffffffffffffffffffffffffffffffffffffff16905090565b606060018054610aad90612823565b80601f0160208091040260200160405190810160405280929190818152602001828054610ad990612823565b8015610b265780601f10610afb57610100808354040283529160200191610b26565b820191906000526020600020905b815481529060010190602001808311610b0957829003601f168201915b5050505050905090565b610b42610b3b610d99565b83836113df565b5050565b610b57610b51610d99565b83610e5a565b610b96576040517f08c379a0000000000000000000000000000000000000000000000000000000008152600401610b8d906129eb565b60405180910390fd5b610ba28484848461154c565b50505050565b6060610bb3826115a8565b9050919050565b600080610bc633610997565b14905090565b6000600560008473ffffffffffffffffffffffffffffffffffffffff1673ffffffffffffffffffffffffffffffffffffffff16815260200190815260200160002060008373ffffffffffffffffffffffffffffffffffffffff1673ffffffffffffffffffffffffffffffffffffffff16815260200190815260200160002060009054906101000a900460ff16905092915050565b610c6861128d565b600073ffffffffffffffffffffffffffffffffffffffff168173ffffffffffffffffffffffffffffffffffffffff161415610cd8576040517f08c379a0000000000000000000000000000000000000000000000000000000008152600401610ccf90612cc8565b60405180910390fd5b610ce18161130b565b50565b60007f01ffc9a7000000000000000000000000000000000000000000000000000000007bffffffffffffffffffffffffffffffffffffffffffffffffffffffff1916827bffffffffffffffffffffffffffffffffffffffffffffffffffffffff1916149050919050565b610d57816116bb565b610d96576040517f08c379a0000000000000000000000000000000000000000000000000000000008152600401610d8d90612a57565b60405180910390fd5b50565b600033905090565b816004600083815260200190815260200160002060006101000a81548173ffffffffffffffffffffffffffffffffffffffff021916908373ffffffffffffffffffffffffffffffffffffffff160217905550808273ffffffffffffffffffffffffffffffffffffffff16610e14836107c7565b73ffffffffffffffffffffffffffffffffffffffff167f8c5be1e5ebec7d5bd14f71427d1e84f3dd0314c0f7b2291e5b200ac8c7c3b92560405160405180910390a45050565b600080610e66836107c7565b90508073ffffffffffffffffffffffffffffffffffffffff168473ffffffffffffffffffffffffffffffffffffffff161480610ea85750610ea78185610bcc565b5b80610ee657508373ffffffffffffffffffffffffffffffffffffffff16610ece84610583565b73ffffffffffffffffffffffffffffffffffffffff16145b91505092915050565b8273ffffffffffffffffffffffffffffffffffffffff16610f0f826107c7565b73ffffffffffffffffffffffffffffffffffffffff1614610f65576040517f08c379a0000000000000000000000000000000000000000000000000000000008152600401610f5c90612d5a565b60405180910390fd5b600073ffffffffffffffffffffffffffffffffffffffff168273ffffffffffffffffffffffffffffffffffffffff161415610fd5576040517f08c379a0000000000000000000000000000000000000000000000000000000008152600401610fcc90612dec565b60405180910390fd5b610fe0838383611727565b610feb600082610da1565b6001600360008573ffffffffffffffffffffffffffffffffffffffff1673ffffffffffffffffffffffffffffffffffffffff168152602001908152602001600020600082825461103b9190612e3b565b925050819055506001600360008473ffffffffffffffffffffffffffffffffffffffff1673ffffffffffffffffffffffffffffffffffffffff16815260200190815260200160002060008282546110929190612e6f565b92505081905550816002600083815260200190815260200160002060006101000a81548173ffffffffffffffffffffffffffffffffffffffff021916908373ffffffffffffffffffffffffffffffffffffffff160217905550808273ffffffffffffffffffffffffffffffffffffffff168473ffffffffffffffffffffffffffffffffffffffff167fddf252ad1be2c89b69c2b068fc378daa952ba7f163c4a11628f55a4df523b3ef60405160405180910390a461115183838361172c565b505050565b61115f81611731565b50565b600081836111709190612e6f565b905092915050565b60606000611184611784565b9050600061119184611807565b826040516020016111a392919061313b565b60405160208183030381529060405290506111bd81611968565b6040516020016111cd91906131f8565b60405160208183030381529060405292505050919050565b6111ff828260405180602001604052806000815250611acc565b5050565b61120c826116bb565b61124b576040517f08c379a00000000000000000000000000000000000000000000000000000000081526004016112429061328c565b60405180910390fd5b8060066000848152602001908152602001600020908051906020019061127292919061214e565b505050565b6001816000016000828254019250508190555050565b611295610d99565b73ffffffffffffffffffffffffffffffffffffffff166112b3610a74565b73ffffffffffffffffffffffffffffffffffffffff1614611309576040517f08c379a0000000000000000000000000000000000000000000000000000000008152600401611300906132f8565b60405180910390fd5b565b6000600760009054906101000a900473ffffffffffffffffffffffffffffffffffffffff16905081600760006101000a81548173ffffffffffffffffffffffffffffffffffffffff021916908373ffffffffffffffffffffffffffffffffffffffff1602179055508173ffffffffffffffffffffffffffffffffffffffff168173ffffffffffffffffffffffffffffffffffffffff167f8be0079c531659141344cd1fd0a4f28419497f9722a3daafe3b4186f6b6457e060405160405180910390a35050565b600081600001549050919050565b8173ffffffffffffffffffffffffffffffffffffffff168373ffffffffffffffffffffffffffffffffffffffff16141561144e576040517f08c379a000000000000000000000000000000000000000000000000000000000815260040161144590613364565b60405180910390fd5b80600560008573ffffffffffffffffffffffffffffffffffffffff1673ffffffffffffffffffffffffffffffffffffffff16815260200190815260200160002060008473ffffffffffffffffffffffffffffffffffffffff1673ffffffffffffffffffffffffffffffffffffffff16815260200190815260200160002060006101000a81548160ff0219169083151502179055508173ffffffffffffffffffffffffffffffffffffffff168373ffffffffffffffffffffffffffffffffffffffff167f17307eab39ab6107e8899845ad3d59bd9653f200f220920489ca2b5937696c318360405161153f91906122e5565b60405180910390a3505050565b611557848484610eef565b61156384848484611b27565b6115a2576040517f08c379a0000000000000000000000000000000000000000000000000000000008152600401611599906133f6565b60405180910390fd5b50505050565b60606115b382610d4e565b60006006600084815260200190815260200160002080546115d390612823565b80601f01602080910402602001604051908101604052809291908181526020018280546115ff90612823565b801561164c5780601f106116215761010080835404028352916020019161164c565b820191906000526020600020905b81548152906001019060200180831161162f57829003601f168201915b50505050509050600061165d611cbe565b90506000815114156116735781925050506116b6565b6000825111156116a8578082604051602001611690929190613416565b604051602081830303815290604052925050506116b6565b6116b184611cd5565b925050505b919050565b60008073ffffffffffffffffffffffffffffffffffffffff166002600084815260200190815260200160002060009054906101000a900473ffffffffffffffffffffffffffffffffffffffff1673ffffffffffffffffffffffffffffffffffffffff1614159050919050565b505050565b505050565b61173a81611d3d565b600060066000838152602001908152602001600020805461175a90612823565b9050146117815760066000828152602001908152602001600020600061178091906121d4565b5b50565b60606000600e611794600a611e5a565b815481106117a5576117a461343a565b5b906000526020600020016117b7611eb4565b6040516020016117c8929190613841565b60405160208183030381529060405290506117e281611968565b6040516020016117f291906138fe565b60405160208183030381529060405291505090565b6060600082141561184f576040518060400160405280600181526020017f30000000000000000000000000000000000000000000000000000000000000008152509050611963565b600082905060005b6000821461188157808061186a90613920565b915050600a8261187a9190613998565b9150611857565b60008167ffffffffffffffff81111561189d5761189c612606565b5b6040519080825280601f01601f1916602001820160405280156118cf5781602001600182028036833780820191505090505b5090505b6000851461195c576001826118e89190612e3b565b9150600a856118f791906139c9565b60306119039190612e6f565b60f81b8183815181106119195761191861343a565b5b60200101907effffffffffffffffffffffffffffffffffffffffffffffffffffffffffffff1916908160001a905350600a856119559190613998565b94506118d3565b8093505050505b919050565b606060008251141561198b57604051806020016040528060008152509050611ac7565b6000604051806060016040528060408152602001613ce760409139905060006003600285516119ba9190612e6f565b6119c49190613998565b60046119d091906139fa565b67ffffffffffffffff8111156119e9576119e8612606565b5b6040519080825280601f01601f191660200182016040528015611a1b5781602001600182028036833780820191505090505b509050600182016020820185865187015b80821015611a87576003820191508151603f8160121c168501518453600184019350603f81600c1c168501518453600184019350603f8160061c168501518453600184019350603f8116850151845360018401935050611a2c565b5050600386510660018114611aa35760028114611ab657611abe565b603d6001830353603d6002830353611abe565b603d60018303535b50505080925050505b919050565b611ad68383611f51565b611ae36000848484611b27565b611b22576040517f08c379a0000000000000000000000000000000000000000000000000000000008152600401611b19906133f6565b60405180910390fd5b505050565b6000611b488473ffffffffffffffffffffffffffffffffffffffff1661212b565b15611cb1578373ffffffffffffffffffffffffffffffffffffffff1663150b7a02611b71610d99565b8786866040518563ffffffff1660e01b8152600401611b939493929190613aa9565b602060405180830381600087803b158015611bad57600080fd5b505af1925050508015611bde57506040513d601f19601f82011682018060405250810190611bdb9190613b0a565b60015b611c61573d8060008114611c0e576040519150601f19603f3d011682016040523d82523d6000602084013e611c13565b606091505b50600081511415611c59576040517f08c379a0000000000000000000000000000000000000000000000000000000008152600401611c50906133f6565b60405180910390fd5b805181602001fd5b63150b7a0260e01b7bffffffffffffffffffffffffffffffffffffffffffffffffffffffff1916817bffffffffffffffffffffffffffffffffffffffffffffffffffffffff191614915050611cb6565b600190505b949350505050565b606060405180602001604052806000815250905090565b6060611ce082610d4e565b6000611cea611cbe565b90506000815111611d0a5760405180602001604052806000815250611d35565b80611d1484611807565b604051602001611d25929190613416565b6040516020818303038152906040525b915050919050565b6000611d48826107c7565b9050611d5681600084611727565b611d61600083610da1565b6001600360008373ffffffffffffffffffffffffffffffffffffffff1673ffffffffffffffffffffffffffffffffffffffff1681526020019081526020016000206000828254611db19190612e3b565b925050819055506002600083815260200190815260200160002060006101000a81549073ffffffffffffffffffffffffffffffffffffffff021916905581600073ffffffffffffffffffffffffffffffffffffffff168273ffffffffffffffffffffffffffffffffffffffff167fddf252ad1be2c89b69c2b068fc378daa952ba7f163c4a11628f55a4df523b3ef60405160405180910390a4611e568160008461172c565b5050565b600080824233611e6a60096113d1565b604051602001611e7c93929190613ba0565b6040516020818303038152906040528051906020012060001c611e9f91906139c9565b9050611eab6009611277565b80915050919050565b6060600b611ec2600a611e5a565b81548110611ed357611ed261343a565b5b90600052602060002001600c611ee9600a611e5a565b81548110611efa57611ef961343a565b5b90600052602060002001600d611f10600a611e5a565b81548110611f2157611f2061343a565b5b90600052602060002001604051602001611f3d93929190613bdd565b604051602081830303815290604052905090565b600073ffffffffffffffffffffffffffffffffffffffff168273ffffffffffffffffffffffffffffffffffffffff161415611fc1576040517f08c379a0000000000000000000000000000000000000000000000000000000008152600401611fb890613c5a565b60405180910390fd5b611fca816116bb565b1561200a576040517f08c379a000000000000000000000000000000000000000000000000000000000815260040161200190613cc6565b60405180910390fd5b61201660008383611727565b6001600360008473ffffffffffffffffffffffffffffffffffffffff1673ffffffffffffffffffffffffffffffffffffffff16815260200190815260200160002060008282546120669190612e6f565b92505081905550816002600083815260200190815260200160002060006101000a81548173ffffffffffffffffffffffffffffffffffffffff021916908373ffffffffffffffffffffffffffffffffffffffff160217905550808273ffffffffffffffffffffffffffffffffffffffff16600073ffffffffffffffffffffffffffffffffffffffff167fddf252ad1be2c89b69c2b068fc378daa952ba7f163c4a11628f55a4df523b3ef60405160405180910390a46121276000838361172c565b5050565b6000808273ffffffffffffffffffffffffffffffffffffffff163b119050919050565b82805461215a90612823565b90600052602060002090601f01602090048101928261217c57600085556121c3565b82601f1061219557805160ff19168380011785556121c3565b828001600101855582156121c3579182015b828111156121c25782518255916020019190600101906121a7565b5b5090506121d09190612214565b5090565b5080546121e090612823565b6000825580601f106121f25750612211565b601f0160209004906000526020600020908101906122109190612214565b5b50565b5b8082111561222d576000816000905550600101612215565b5090565b6000604051905090565b600080fd5b600080fd5b60007fffffffff0000000000000000000000000000000000000000000000000000000082169050919050565b61227a81612245565b811461228557600080fd5b50565b60008135905061229781612271565b92915050565b6000602082840312156122b3576122b261223b565b5b60006122c184828501612288565b91505092915050565b60008115159050919050565b6122df816122ca565b82525050565b60006020820190506122fa60008301846122d6565b92915050565b600081519050919050565b600082825260208201905092915050565b60005b8381101561233a57808201518184015260208101905061231f565b83811115612349576000848401525b50505050565b6000601f19601f8301169050919050565b600061236b82612300565b612375818561230b565b935061238581856020860161231c565b61238e8161234f565b840191505092915050565b600060208201905081810360008301526123b38184612360565b905092915050565b6000819050919050565b6123ce816123bb565b81146123d957600080fd5b50565b6000813590506123eb816123c5565b92915050565b6000602082840312156124075761240661223b565b5b6000612415848285016123dc565b91505092915050565b600073ffffffffffffffffffffffffffffffffffffffff82169050919050565b60006124498261241e565b9050919050565b6124598161243e565b82525050565b60006020820190506124746000830184612450565b92915050565b6124838161243e565b811461248e57600080fd5b50565b6000813590506124a08161247a565b92915050565b600080604083850312156124bd576124bc61223b565b5b60006124cb85828601612491565b92505060206124dc858286016123dc565b9150509250929050565b6000806000606084860312156124ff576124fe61223b565b5b600061250d86828701612491565b935050602061251e86828701612491565b925050604061252f868287016123dc565b9150509250925092565b612542816123bb565b82525050565b600060208201905061255d6000830184612539565b92915050565b6000602082840312156125795761257861223b565b5b600061258784828501612491565b91505092915050565b612599816122ca565b81146125a457600080fd5b50565b6000813590506125b681612590565b92915050565b600080604083850312156125d3576125d261223b565b5b60006125e185828601612491565b92505060206125f2858286016125a7565b9150509250929050565b600080fd5b600080fd5b7f4e487b7100000000000000000000000000000000000000000000000000000000600052604160045260246000fd5b61263e8261234f565b810181811067ffffffffffffffff8211171561265d5761265c612606565b5b80604052505050565b6000612670612231565b905061267c8282612635565b919050565b600067ffffffffffffffff82111561269c5761269b612606565b5b6126a58261234f565b9050602081019050919050565b82818337600083830152505050565b60006126d46126cf84612681565b612666565b9050828152602081018484840111156126f0576126ef612601565b5b6126fb8482856126b2565b509392505050565b600082601f830112612718576127176125fc565b5b81356127288482602086016126c1565b91505092915050565b6000806000806080858703121561274b5761274a61223b565b5b600061275987828801612491565b945050602061276a87828801612491565b935050604061277b878288016123dc565b925050606085013567ffffffffffffffff81111561279c5761279b612240565b5b6127a887828801612703565b91505092959194509250565b600080604083850312156127cb576127ca61223b565b5b60006127d985828601612491565b92505060206127ea85828601612491565b9150509250929050565b7f4e487b7100000000000000000000000000000000000000000000000000000000600052602260045260246000fd5b6000600282049050600182168061283b57607f821691505b6020821081141561284f5761284e6127f4565b5b50919050565b7f4552433732313a20617070726f76616c20746f2063757272656e74206f776e6560008201527f7200000000000000000000000000000000000000000000000000000000000000602082015250565b60006128b160218361230b565b91506128bc82612855565b604082019050919050565b600060208201905081810360008301526128e0816128a4565b9050919050565b7f4552433732313a20617070726f76652063616c6c6572206973206e6f7420746f60008201527f6b656e206f776e6572206e6f7220617070726f76656420666f7220616c6c0000602082015250565b6000612943603e8361230b565b915061294e826128e7565b604082019050919050565b6000602082019050818103600083015261297281612936565b9050919050565b7f4552433732313a2063616c6c6572206973206e6f7420746f6b656e206f776e6560008201527f72206e6f7220617070726f766564000000000000000000000000000000000000602082015250565b60006129d5602e8361230b565b91506129e082612979565b604082019050919050565b60006020820190508181036000830152612a04816129c8565b9050919050565b7f4552433732313a20696e76616c696420746f6b656e2049440000000000000000600082015250565b6000612a4160188361230b565b9150612a4c82612a0b565b602082019050919050565b60006020820190508181036000830152612a7081612a34565b9050919050565b7f424454204e465420636f756e74206d757374206265203020696e206f7264657260008201527f20746f206d696e74000000000000000000000000000000000000000000000000602082015250565b6000612ad360288361230b565b9150612ade82612a77565b604082019050919050565b60006020820190508181036000830152612b0281612ac6565b9050919050565b7f546865206c696d6974206f66206d696e74696e6720697320616368696576656460008201527f2100000000000000000000000000000000000000000000000000000000000000602082015250565b6000612b6560218361230b565b9150612b7082612b09565b604082019050919050565b60006020820190508181036000830152612b9481612b58565b9050919050565b6000604082019050612bb06000830185612450565b612bbd6020830184612539565b9392505050565b7f4552433732313a2061646472657373207a65726f206973206e6f74206120766160008201527f6c6964206f776e65720000000000000000000000000000000000000000000000602082015250565b6000612c2060298361230b565b9150612c2b82612bc4565b604082019050919050565b60006020820190508181036000830152612c4f81612c13565b9050919050565b7f4f776e61626c653a206e6577206f776e657220697320746865207a65726f206160008201527f6464726573730000000000000000000000000000000000000000000000000000602082015250565b6000612cb260268361230b565b9150612cbd82612c56565b604082019050919050565b60006020820190508181036000830152612ce181612ca5565b9050919050565b7f4552433732313a207472616e736665722066726f6d20696e636f72726563742060008201527f6f776e6572000000000000000000000000000000000000000000000000000000602082015250565b6000612d4460258361230b565b9150612d4f82612ce8565b604082019050919050565b60006020820190508181036000830152612d7381612d37565b9050919050565b7f4552433732313a207472616e7366657220746f20746865207a65726f2061646460008201527f7265737300000000000000000000000000000000000000000000000000000000602082015250565b6000612dd660248361230b565b9150612de182612d7a565b604082019050919050565b60006020820190508181036000830152612e0581612dc9565b9050919050565b7f4e487b7100000000000000000000000000000000000000000000000000000000600052601160045260246000fd5b6000612e46826123bb565b9150612e51836123bb565b925082821015612e6457612e63612e0c565b5b828203905092915050565b6000612e7a826123bb565b9150612e85836123bb565b9250827fffffffffffffffffffffffffffffffffffffffffffffffffffffffffffffffff03821115612eba57612eb9612e0c565b5b828201905092915050565b600081905092915050565b7f7b00000000000000000000000000000000000000000000000000000000000000600082015250565b6000612f06600183612ec5565b9150612f1182612ed0565b600182019050919050565b7f226e616d65223a20226275746f76736b792e6465762023000000000000000000600082015250565b6000612f52601783612ec5565b9150612f5d82612f1c565b601782019050919050565b6000612f7382612300565b612f7d8185612ec5565b9350612f8d81856020860161231c565b80840191505092915050565b7f222c000000000000000000000000000000000000000000000000000000000000600082015250565b6000612fcf600283612ec5565b9150612fda82612f99565b600282019050919050565b7f226465736372697074696f6e223a202257656c636f6d6520746f206d7920706f60008201527f7274666f6c696f207765627369746521222c0000000000000000000000000000602082015250565b6000613041603283612ec5565b915061304c82612fe5565b603282019050919050565b7f22696d616765223a202200000000000000000000000000000000000000000000600082015250565b600061308d600a83612ec5565b915061309882613057565b600a82019050919050565b7f2200000000000000000000000000000000000000000000000000000000000000600082015250565b60006130d9600183612ec5565b91506130e4826130a3565b600182019050919050565b7f7d00000000000000000000000000000000000000000000000000000000000000600082015250565b6000613125600183612ec5565b9150613130826130ef565b600182019050919050565b600061314682612ef9565b915061315182612f45565b915061315d8285612f68565b915061316882612fc2565b915061317382613034565b915061317e82613080565b915061318a8284612f68565b9150613195826130cc565b91506131a082613118565b91508190509392505050565b7f646174613a6170706c69636174696f6e2f6a736f6e3b6261736536342c000000600082015250565b60006131e2601d83612ec5565b91506131ed826131ac565b601d82019050919050565b6000613203826131d5565b915061320f8284612f68565b915081905092915050565b7f45524337323155524953746f726167653a2055524920736574206f66206e6f6e60008201527f6578697374656e7420746f6b656e000000000000000000000000000000000000602082015250565b6000613276602e8361230b565b91506132818261321a565b604082019050919050565b600060208201905081810360008301526132a581613269565b9050919050565b7f4f776e61626c653a2063616c6c6572206973206e6f7420746865206f776e6572600082015250565b60006132e260208361230b565b91506132ed826132ac565b602082019050919050565b60006020820190508181036000830152613311816132d5565b9050919050565b7f4552433732313a20617070726f766520746f2063616c6c657200000000000000600082015250565b600061334e60198361230b565b915061335982613318565b602082019050919050565b6000602082019050818103600083015261337d81613341565b9050919050565b7f4552433732313a207472616e7366657220746f206e6f6e20455243373231526560008201527f63656976657220696d706c656d656e7465720000000000000000000000000000602082015250565b60006133e060328361230b565b91506133eb82613384565b604082019050919050565b6000602082019050818103600083015261340f816133d3565b9050919050565b60006134228285612f68565b915061342e8284612f68565b91508190509392505050565b7f4e487b7100000000000000000000000000000000000000000000000000000000600052603260045260246000fd5b7f3c73766720786d6c6e733d22687474703a2f2f7777772e77332e6f72672f323060008201527f30302f73766722207072657365727665417370656374526174696f3d22784d6960208201527f6e594d696e206d656574222076696577426f783d22302030203335302033353060408201527f223e000000000000000000000000000000000000000000000000000000000000606082015250565b6000613511606283612ec5565b915061351c82613469565b606282019050919050565b7f3c7374796c653e2e62617365207b2066696c6c3a2077686974653b20666f6e7460008201527f2d66616d696c793a2073657269663b20666f6e742d73697a653a20313470783b60208201527f207d3c2f7374796c653e00000000000000000000000000000000000000000000604082015250565b60006135a9604a83612ec5565b91506135b482613527565b604a82019050919050565b7f3c726563742077696474683d223130302522206865696768743d22313030252260008201527f2066696c6c3d2200000000000000000000000000000000000000000000000000602082015250565b600061361b602783612ec5565b9150613626826135bf565b602782019050919050565b60008190508160005260206000209050919050565b6000815461365381612823565b61365d8186612ec5565b945060018216600081146136785760018114613689576136bc565b60ff198316865281860193506136bc565b61369285613631565b60005b838110156136b457815481890152600182019150602081019050613695565b838801955050505b50505092915050565b7f222f3e0000000000000000000000000000000000000000000000000000000000600082015250565b60006136fb600383612ec5565b9150613706826136c5565b600382019050919050565b7f3c7465787420783d223530252220793d223530252220636c6173733d2262617360008201527f652220646f6d696e616e742d626173656c696e653d226d6964646c652220746560208201527f78742d616e63686f723d226d6964646c65223e00000000000000000000000000604082015250565b6000613793605383612ec5565b915061379e82613711565b605382019050919050565b7f3c2f746578743e00000000000000000000000000000000000000000000000000600082015250565b60006137df600783612ec5565b91506137ea826137a9565b600782019050919050565b7f3c2f7376673e0000000000000000000000000000000000000000000000000000600082015250565b600061382b600683612ec5565b9150613836826137f5565b600682019050919050565b600061384c82613504565b91506138578261359c565b91506138628261360e565b915061386e8285613646565b9150613879826136ee565b915061388482613786565b91506138908284612f68565b915061389b826137d2565b91506138a68261381e565b91508190509392505050565b7f646174613a696d6167652f7376672b786d6c3b6261736536342c000000000000600082015250565b60006138e8601a83612ec5565b91506138f3826138b2565b601a82019050919050565b6000613909826138db565b91506139158284612f68565b915081905092915050565b600061392b826123bb565b91507fffffffffffffffffffffffffffffffffffffffffffffffffffffffffffffffff82141561395e5761395d612e0c565b5b600182019050919050565b7f4e487b7100000000000000000000000000000000000000000000000000000000600052601260045260246000fd5b60006139a3826123bb565b91506139ae836123bb565b9250826139be576139bd613969565b5b828204905092915050565b60006139d4826123bb565b91506139df836123bb565b9250826139ef576139ee613969565b5b828206905092915050565b6000613a05826123bb565b9150613a10836123bb565b9250817fffffffffffffffffffffffffffffffffffffffffffffffffffffffffffffffff0483118215151615613a4957613a48612e0c565b5b828202905092915050565b600081519050919050565b600082825260208201905092915050565b6000613a7b82613a54565b613a858185613a5f565b9350613a9581856020860161231c565b613a9e8161234f565b840191505092915050565b6000608082019050613abe6000830187612450565b613acb6020830186612450565b613ad86040830185612539565b8181036060830152613aea8184613a70565b905095945050505050565b600081519050613b0481612271565b92915050565b600060208284031215613b2057613b1f61223b565b5b6000613b2e84828501613af5565b91505092915050565b6000819050919050565b613b52613b4d826123bb565b613b37565b82525050565b60008160601b9050919050565b6000613b7082613b58565b9050919050565b6000613b8282613b65565b9050919050565b613b9a613b958261243e565b613b77565b82525050565b6000613bac8286613b41565b602082019150613bbc8285613b89565b601482019150613bcc8284613b41565b602082019150819050949350505050565b6000613be98286613646565b9150613bf58285613646565b9150613c018284613646565b9150819050949350505050565b7f4552433732313a206d696e7420746f20746865207a65726f2061646472657373600082015250565b6000613c4460208361230b565b9150613c4f82613c0e565b602082019050919050565b60006020820190508181036000830152613c7381613c37565b9050919050565b7f4552433732313a20746f6b656e20616c7265616479206d696e74656400000000600082015250565b6000613cb0601c8361230b565b9150613cbb82613c7a565b602082019050919050565b60006020820190508181036000830152613cdf81613ca3565b905091905056fe4142434445464748494a4b4c4d4e4f505152535455565758595a6162636465666768696a6b6c6d6e6f707172737475767778797a303132333435363738392b2fa2646970667358221220bb63400c5c449912a3b6d478a9616e9009cc77d064da089cfcb58f4c7500636a64736f6c63430008090033",
  "linkReferences": {},
  "deployedLinkReferences": {}
}