{
  "_format": "hh-sol-artifact-1",
  "contractName": "WavePortal",
  "sourceName": "contracts/WavePortal.sol",
  "abi": [
    {
      "inputs": [],
      "stateMutability": "nonpayable",
      "type": "constructor"
    },
    {
      "anonymous": false,
      "inputs": [
        {
          "indexed": true,
          "internalType": "address",
          "name": "previousOwner",
          "type": "address"
        },
        {
          "indexed": true,
          "internalType": "address",
          "name": "newOwner",
          "type": "address"
        }
      ],
      "name": "OwnershipTransferred",
      "type": "event"
    },
    {
      "anonymous": false,
      "inputs": [
        {
          "indexed": false,
          "internalType": "address",
          "name": "from",
          "type": "address"
        },
        {
          "indexed": false,
          "internalType": "address",
          "name": "to",
          "type": "address"
        }
      ],
      "name": "UserWaved",
      "type": "event"
    },
    {
      "inputs": [],
      "name": "cooldownTime",
      "outputs": [
        {
          "internalType": "uint256",
          "name": "",
          "type": "uint256"
        }
      ],
      "stateMutability": "view",
      "type": "function"
    },
    {
      "inputs": [],
      "name": "fund",
      "outputs": [],
      "stateMutability": "payable",
      "type": "function"
    },
    {
      "inputs": [],
      "name": "getChance",
      "outputs": [
        {
          "internalType": "uint256",
          "name": "",
          "type": "uint256"
        }
      ],
      "stateMutability": "view",
      "type": "function"
    },
    {
      "inputs": [],
      "name": "getFunds",
      "outputs": [
        {
          "internalType": "uint256",
          "name": "",
          "type": "uint256"
        }
      ],
      "stateMutability": "view",
      "type": "function"
    },
    {
      "inputs": [],
      "name": "getReward",
      "outputs": [
        {
          "internalType": "uint256",
          "name": "",
          "type": "uint256"
        }
      ],
      "stateMutability": "view",
      "type": "function"
    },
    {
      "inputs": [],
      "name": "myWaves",
      "outputs": [
        {
          "components": [
            {
              "internalType": "address",
              "name": "from",
              "type": "address"
            },
            {
              "internalType": "string",
              "name": "message",
              "type": "string"
            }
          ],
          "internalType": "struct WavePortal.Wave[]",
          "name": "",
          "type": "tuple[]"
        }
      ],
      "stateMutability": "view",
      "type": "function"
    },
    {
      "inputs": [],
      "name": "owner",
      "outputs": [
        {
          "internalType": "address",
          "name": "",
          "type": "address"
        }
      ],
      "stateMutability": "view",
      "type": "function"
    },
    {
      "inputs": [],
      "name": "renounceOwnership",
      "outputs": [],
      "stateMutability": "nonpayable",
      "type": "function"
    },
    {
      "inputs": [
        {
          "internalType": "uint256",
          "name": "_newChance",
          "type": "uint256"
        }
      ],
      "name": "setChance",
      "outputs": [],
      "stateMutability": "nonpayable",
      "type": "function"
    },
    {
      "inputs": [
        {
          "internalType": "uint256",
          "name": "_newCooldown",
          "type": "uint256"
        }
      ],
      "name": "setCooldownTime",
      "outputs": [],
      "stateMutability": "nonpayable",
      "type": "function"
    },
    {
      "inputs": [
        {
          "internalType": "uint256",
          "name": "_newPrize",
          "type": "uint256"
        }
      ],
      "name": "setReward",
      "outputs": [],
      "stateMutability": "nonpayable",
      "type": "function"
    },
    {
      "inputs": [],
      "name": "totalWaves",
      "outputs": [
        {
          "internalType": "uint256",
          "name": "_value",
          "type": "uint256"
        }
      ],
      "stateMutability": "view",
      "type": "function"
    },
    {
      "inputs": [
        {
          "internalType": "address",
          "name": "newOwner",
          "type": "address"
        }
      ],
      "name": "transferOwnership",
      "outputs": [],
      "stateMutability": "nonpayable",
      "type": "function"
    },
    {
      "inputs": [],
      "name": "userCooldown",
      "outputs": [
        {
          "internalType": "uint256",
          "name": "",
          "type": "uint256"
        }
      ],
      "stateMutability": "view",
      "type": "function"
    },
    {
      "inputs": [
        {
          "internalType": "string",
          "name": "_message",
          "type": "string"
        },
        {
          "internalType": "address",
          "name": "_to",
          "type": "address"
        }
      ],
      "name": "wave",
      "outputs": [],
      "stateMutability": "nonpayable",
      "type": "function"
    },
    {
      "inputs": [],
      "name": "wavesCount",
      "outputs": [
        {
          "internalType": "uint256",
          "name": "",
          "type": "uint256"
        }
      ],
      "stateMutability": "view",
      "type": "function"
    },
    {
      "inputs": [],
      "name": "withdraw",
      "outputs": [],
      "stateMutability": "nonpayable",
      "type": "function"
    }
  ],
  "bytecode": "0x608060405261038460035534801561001657600080fd5b5061003361002861003860201b60201c565b61004060201b60201c565b610104565b600033905090565b60008060009054906101000a900473ffffffffffffffffffffffffffffffffffffffff169050816000806101000a81548173ffffffffffffffffffffffffffffffffffffffff021916908373ffffffffffffffffffffffffffffffffffffffff1602179055508173ffffffffffffffffffffffffffffffffffffffff168173ffffffffffffffffffffffffffffffffffffffff167f8be0079c531659141344cd1fd0a4f28419497f9722a3daafe3b4186f6b6457e060405160405180910390a35050565b611d6e806101136000396000f3fe6080604052600436106100fe5760003560e01c80636ff73201116100955780638da5cb5b116100645780638da5cb5b146102d7578063b319c6b714610302578063b60071261461032d578063b60d428814610358578063f2fde38b14610362576100fe565b80636ff7320114610243578063709c50451461026c578063715018a61461029557806386d73b41146102ac576100fe565b80633d18b912116100d15780633d18b9121461019957806343d29adb146101c45780634d9b3735146101ed5780635601a99814610218576100fe565b8063291bcab314610103578063293be4561461012e57806337fe7a1a146101575780633ccfd60b14610182575b600080fd5b34801561010f57600080fd5b5061011861038b565b604051610125919061124f565b60405180910390f35b34801561013a57600080fd5b50610155600480360381019061015091906112aa565b610397565b005b34801561016357600080fd5b5061016c610475565b60405161017991906114b0565b60405180910390f35b34801561018e57600080fd5b506101976105f9565b005b3480156101a557600080fd5b506101ae6107b7565b6040516101bb919061124f565b60405180910390f35b3480156101d057600080fd5b506101eb60048036038101906101e69190611633565b610801565b005b3480156101f957600080fd5b50610202610ca3565b60405161020f919061124f565b60405180910390f35b34801561022457600080fd5b5061022d610ced565b60405161023a919061124f565b60405180910390f35b34801561024f57600080fd5b5061026a600480360381019061026591906112aa565b610cfe565b005b34801561027857600080fd5b50610293600480360381019061028e91906112aa565b610d10565b005b3480156102a157600080fd5b506102aa610daa565b005b3480156102b857600080fd5b506102c1610dbe565b6040516102ce919061124f565b60405180910390f35b3480156102e357600080fd5b506102ec610e08565b6040516102f9919061169e565b60405180910390f35b34801561030e57600080fd5b50610317610e31565b604051610324919061124f565b60405180910390f35b34801561033957600080fd5b50610342610e37565b60405161034f919061124f565b60405180910390f35b610360610e7e565b005b34801561036e57600080fd5b50610389600480360381019061038491906116b9565b610f1b565b005b60018060000154905081565b80600560003373ffffffffffffffffffffffffffffffffffffffff1673ffffffffffffffffffffffffffffffffffffffff168152602001908152602001600020600001819055506000600560003373ffffffffffffffffffffffffffffffffffffffff1673ffffffffffffffffffffffffffffffffffffffff168152602001908152602001600020600201541415610472576032600560003373ffffffffffffffffffffffffffffffffffffffff1673ffffffffffffffffffffffffffffffffffffffff168152602001908152602001600020600201819055505b50565b6060600460003373ffffffffffffffffffffffffffffffffffffffff1673ffffffffffffffffffffffffffffffffffffffff168152602001908152602001600020805480602002602001604051908101604052809291908181526020016000905b828210156105f057838290600052602060002090600202016040518060400160405290816000820160009054906101000a900473ffffffffffffffffffffffffffffffffffffffff1673ffffffffffffffffffffffffffffffffffffffff1673ffffffffffffffffffffffffffffffffffffffff16815260200160018201805461055f90611715565b80601f016020809104026020016040519081016040528092919081815260200182805461058b90611715565b80156105d85780601f106105ad576101008083540402835291602001916105d8565b820191906000526020600020905b8154815290600101906020018083116105bb57829003601f168201915b505050505081525050815260200190600101906104d6565b50505050905090565b47600560003373ffffffffffffffffffffffffffffffffffffffff1673ffffffffffffffffffffffffffffffffffffffff16815260200190815260200160002060010154111561067e576040517f08c379a0000000000000000000000000000000000000000000000000000000008152600401610675906117ca565b60405180910390fd5b60003373ffffffffffffffffffffffffffffffffffffffff16600560003373ffffffffffffffffffffffffffffffffffffffff1673ffffffffffffffffffffffffffffffffffffffff168152602001908152602001600020600101546040516106e69061181b565b60006040518083038185875af1925050503d8060008114610723576040519150601f19603f3d011682016040523d82523d6000602084013e610728565b606091505b505090508061076c576040517f08c379a0000000000000000000000000000000000000000000000000000000008152600401610763906118a2565b60405180910390fd5b6000600560003373ffffffffffffffffffffffffffffffffffffffff1673ffffffffffffffffffffffffffffffffffffffff1681526020019081526020016000206001018190555050565b6000600560003373ffffffffffffffffffffffffffffffffffffffff1673ffffffffffffffffffffffffffffffffffffffff16815260200190815260200160002060000154905090565b6000600660003373ffffffffffffffffffffffffffffffffffffffff1673ffffffffffffffffffffffffffffffffffffffff16815260200190815260200160002054148061088e575042600660003373ffffffffffffffffffffffffffffffffffffffff1673ffffffffffffffffffffffffffffffffffffffff1681526020019081526020016000205411155b6108cd576040517f08c379a00000000000000000000000000000000000000000000000000000000081526004016108c49061190e565b60405180910390fd5b6108d76001610f9f565b600060405180604001604052803373ffffffffffffffffffffffffffffffffffffffff1681526020018481525090506000600560008473ffffffffffffffffffffffffffffffffffffffff1673ffffffffffffffffffffffffffffffffffffffff1681526020019081526020016000206040518060600160405290816000820154815260200160018201548152602001600282015481525050905060008160000151118015610993575080604001516109906065610fb5565b11155b15610b4457478160000151111580156109b457508060200151816000015111155b6109f3576040517f08c379a00000000000000000000000000000000000000000000000000000000081526004016109ea906119a0565b60405180910390fd5b60003373ffffffffffffffffffffffffffffffffffffffff168260000151604051610a1d9061181b565b60006040518083038185875af1925050503d8060008114610a5a576040519150601f19603f3d011682016040523d82523d6000602084013e610a5f565b606091505b5050905080610aa3576040517f08c379a0000000000000000000000000000000000000000000000000000000008152600401610a9a906118a2565b60405180910390fd5b610afc8260000151600560008773ffffffffffffffffffffffffffffffffffffffff1673ffffffffffffffffffffffffffffffffffffffff1681526020019081526020016000206001015461100f90919063ffffffff16565b600560008673ffffffffffffffffffffffffffffffffffffffff1673ffffffffffffffffffffffffffffffffffffffff16815260200190815260200160002060010181905550505b600460008473ffffffffffffffffffffffffffffffffffffffff1673ffffffffffffffffffffffffffffffffffffffff16815260200190815260200160002082908060018154018082558091505060019003906000526020600020906002020160009091909190915060008201518160000160006101000a81548173ffffffffffffffffffffffffffffffffffffffff021916908373ffffffffffffffffffffffffffffffffffffffff1602179055506020820151816001019080519060200190610c10929190611193565b5050507f7336e193fa54eeaff51cf31a2f21239bf52948639e7894eee0eb660532e96a773384604051610c449291906119c0565b60405180910390a160035442610c5a9190611a18565b600660003373ffffffffffffffffffffffffffffffffffffffff1673ffffffffffffffffffffffffffffffffffffffff1681526020019081526020016000208190555050505050565b6000600560003373ffffffffffffffffffffffffffffffffffffffff1673ffffffffffffffffffffffffffffffffffffffff16815260200190815260200160002060010154905090565b6000610cf96001611025565b905090565b610d06611033565b8060038190555050565b60648111158015610d215750600081115b610d60576040517f08c379a0000000000000000000000000000000000000000000000000000000008152600401610d5790611ae0565b60405180910390fd5b80600560003373ffffffffffffffffffffffffffffffffffffffff1673ffffffffffffffffffffffffffffffffffffffff1681526020019081526020016000206002018190555050565b610db2611033565b610dbc60006110b1565b565b6000600560003373ffffffffffffffffffffffffffffffffffffffff1673ffffffffffffffffffffffffffffffffffffffff16815260200190815260200160002060020154905090565b60008060009054906101000a900473ffffffffffffffffffffffffffffffffffffffff16905090565b60035481565b6000600660003373ffffffffffffffffffffffffffffffffffffffff1673ffffffffffffffffffffffffffffffffffffffff16815260200190815260200160002054905090565b610ed334600560003373ffffffffffffffffffffffffffffffffffffffff1673ffffffffffffffffffffffffffffffffffffffff1681526020019081526020016000206001015461117590919063ffffffff16565b600560003373ffffffffffffffffffffffffffffffffffffffff1673ffffffffffffffffffffffffffffffffffffffff16815260200190815260200160002060010181905550565b610f23611033565b600073ffffffffffffffffffffffffffffffffffffffff168173ffffffffffffffffffffffffffffffffffffffff161415610f93576040517f08c379a0000000000000000000000000000000000000000000000000000000008152600401610f8a90611b72565b60405180910390fd5b610f9c816110b1565b50565b6001816000016000828254019250508190555050565b600080824233610fc56002611025565b604051602001610fd793929190611bfb565b6040516020818303038152906040528051906020012060001c610ffa9190611c67565b90506110066002610f9f565b80915050919050565b6000818361101d9190611c98565b905092915050565b600081600001549050919050565b61103b61118b565b73ffffffffffffffffffffffffffffffffffffffff16611059610e08565b73ffffffffffffffffffffffffffffffffffffffff16146110af576040517f08c379a00000000000000000000000000000000000000000000000000000000081526004016110a690611d18565b60405180910390fd5b565b60008060009054906101000a900473ffffffffffffffffffffffffffffffffffffffff169050816000806101000a81548173ffffffffffffffffffffffffffffffffffffffff021916908373ffffffffffffffffffffffffffffffffffffffff1602179055508173ffffffffffffffffffffffffffffffffffffffff168173ffffffffffffffffffffffffffffffffffffffff167f8be0079c531659141344cd1fd0a4f28419497f9722a3daafe3b4186f6b6457e060405160405180910390a35050565b600081836111839190611a18565b905092915050565b600033905090565b82805461119f90611715565b90600052602060002090601f0160209004810192826111c15760008555611208565b82601f106111da57805160ff1916838001178555611208565b82800160010185558215611208579182015b828111156112075782518255916020019190600101906111ec565b5b5090506112159190611219565b5090565b5b8082111561123257600081600090555060010161121a565b5090565b6000819050919050565b61124981611236565b82525050565b60006020820190506112646000830184611240565b92915050565b6000604051905090565b600080fd5b600080fd5b61128781611236565b811461129257600080fd5b50565b6000813590506112a48161127e565b92915050565b6000602082840312156112c0576112bf611274565b5b60006112ce84828501611295565b91505092915050565b600081519050919050565b600082825260208201905092915050565b6000819050602082019050919050565b600073ffffffffffffffffffffffffffffffffffffffff82169050919050565b600061132e82611303565b9050919050565b61133e81611323565b82525050565b600081519050919050565b600082825260208201905092915050565b60005b8381101561137e578082015181840152602081019050611363565b8381111561138d576000848401525b50505050565b6000601f19601f8301169050919050565b60006113af82611344565b6113b9818561134f565b93506113c9818560208601611360565b6113d281611393565b840191505092915050565b60006040830160008301516113f56000860182611335565b506020830151848203602086015261140d82826113a4565b9150508091505092915050565b600061142683836113dd565b905092915050565b6000602082019050919050565b6000611446826112d7565b61145081856112e2565b935083602082028501611462856112f3565b8060005b8581101561149e578484038952815161147f858261141a565b945061148a8361142e565b925060208a01995050600181019050611466565b50829750879550505050505092915050565b600060208201905081810360008301526114ca818461143b565b905092915050565b600080fd5b600080fd5b7f4e487b7100000000000000000000000000000000000000000000000000000000600052604160045260246000fd5b61151482611393565b810181811067ffffffffffffffff82111715611533576115326114dc565b5b80604052505050565b600061154661126a565b9050611552828261150b565b919050565b600067ffffffffffffffff821115611572576115716114dc565b5b61157b82611393565b9050602081019050919050565b82818337600083830152505050565b60006115aa6115a584611557565b61153c565b9050828152602081018484840111156115c6576115c56114d7565b5b6115d1848285611588565b509392505050565b600082601f8301126115ee576115ed6114d2565b5b81356115fe848260208601611597565b91505092915050565b61161081611323565b811461161b57600080fd5b50565b60008135905061162d81611607565b92915050565b6000806040838503121561164a57611649611274565b5b600083013567ffffffffffffffff81111561166857611667611279565b5b611674858286016115d9565b92505060206116858582860161161e565b9150509250929050565b61169881611323565b82525050565b60006020820190506116b3600083018461168f565b92915050565b6000602082840312156116cf576116ce611274565b5b60006116dd8482850161161e565b91505092915050565b7f4e487b7100000000000000000000000000000000000000000000000000000000600052602260045260246000fd5b6000600282049050600182168061172d57607f821691505b60208210811415611741576117406116e6565b5b50919050565b600082825260208201905092915050565b7f496e73756666696369656e742066756e647320666f722077697468647261776960008201527f6e67204554480000000000000000000000000000000000000000000000000000602082015250565b60006117b4602683611747565b91506117bf82611758565b604082019050919050565b600060208201905081810360008301526117e3816117a7565b9050919050565b600081905092915050565b50565b60006118056000836117ea565b9150611810826117f5565b600082019050919050565b6000611826826117f8565b9150819050919050565b7f4661696c656420746f207769746864726177204554482074686f75676820746860008201527f652066756e6473206172652073756666696369656e7400000000000000000000602082015250565b600061188c603683611747565b915061189782611830565b604082019050919050565b600060208201905081810360008301526118bb8161187f565b9050919050565b7f596f75206d757374207761697420666f722074686520636f6f6c646f776e2100600082015250565b60006118f8601f83611747565b9150611903826118c2565b602082019050919050565b60006020820190508181036000830152611927816118eb565b9050919050565b7f496e73756666696369656e742066756e647320666f722077697468647261776960008201527f6e67204554482061667465722057617665000000000000000000000000000000602082015250565b600061198a603183611747565b91506119958261192e565b604082019050919050565b600060208201905081810360008301526119b98161197d565b9050919050565b60006040820190506119d5600083018561168f565b6119e2602083018461168f565b9392505050565b7f4e487b7100000000000000000000000000000000000000000000000000000000600052601160045260246000fd5b6000611a2382611236565b9150611a2e83611236565b9250827fffffffffffffffffffffffffffffffffffffffffffffffffffffffffffffffff03821115611a6357611a626119e9565b5b828201905092915050565b7f546865206e756d626572206d757374206265203c3d2031303020616e64203e2060008201527f3000000000000000000000000000000000000000000000000000000000000000602082015250565b6000611aca602183611747565b9150611ad582611a6e565b604082019050919050565b60006020820190508181036000830152611af981611abd565b9050919050565b7f4f776e61626c653a206e6577206f776e657220697320746865207a65726f206160008201527f6464726573730000000000000000000000000000000000000000000000000000602082015250565b6000611b5c602683611747565b9150611b6782611b00565b604082019050919050565b60006020820190508181036000830152611b8b81611b4f565b9050919050565b6000819050919050565b611bad611ba882611236565b611b92565b82525050565b60008160601b9050919050565b6000611bcb82611bb3565b9050919050565b6000611bdd82611bc0565b9050919050565b611bf5611bf082611323565b611bd2565b82525050565b6000611c078286611b9c565b602082019150611c178285611be4565b601482019150611c278284611b9c565b602082019150819050949350505050565b7f4e487b7100000000000000000000000000000000000000000000000000000000600052601260045260246000fd5b6000611c7282611236565b9150611c7d83611236565b925082611c8d57611c8c611c38565b5b828206905092915050565b6000611ca382611236565b9150611cae83611236565b925082821015611cc157611cc06119e9565b5b828203905092915050565b7f4f776e61626c653a2063616c6c6572206973206e6f7420746865206f776e6572600082015250565b6000611d02602083611747565b9150611d0d82611ccc565b602082019050919050565b60006020820190508181036000830152611d3181611cf5565b905091905056fea2646970667358221220342d66caa8d9b70e326379b4123a91a7842cbb229c235dfc2d1c356792eddec464736f6c63430008090033",
  "linkReferences": {},
  "deployedLinkReferences": {}
}