{
  "_format": "hh-sol-artifact-1",
  "contractName": "WavePortal",
  "sourceName": "contracts/WavePortal.sol",
  "abi": [
    {
      "inputs": [],
      "stateMutability": "nonpayable",
      "type": "constructor"
    },
    {
      "anonymous": false,
      "inputs": [
        {
          "indexed": true,
          "internalType": "address",
          "name": "previousOwner",
          "type": "address"
        },
        {
          "indexed": true,
          "internalType": "address",
          "name": "newOwner",
          "type": "address"
        }
      ],
      "name": "OwnershipTransferred",
      "type": "event"
    },
    {
      "anonymous": false,
      "inputs": [
        {
          "indexed": false,
          "internalType": "address",
          "name": "from",
          "type": "address"
        },
        {
          "indexed": false,
          "internalType": "address",
          "name": "to",
          "type": "address"
        }
      ],
      "name": "UserWaved",
      "type": "event"
    },
    {
      "inputs": [],
      "name": "fund",
      "outputs": [],
      "stateMutability": "payable",
      "type": "function"
    },
    {
      "inputs": [],
      "name": "getFunds",
      "outputs": [
        {
          "internalType": "uint256",
          "name": "",
          "type": "uint256"
        }
      ],
      "stateMutability": "view",
      "type": "function"
    },
    {
      "inputs": [],
      "name": "getReward",
      "outputs": [
        {
          "internalType": "uint256",
          "name": "",
          "type": "uint256"
        }
      ],
      "stateMutability": "view",
      "type": "function"
    },
    {
      "inputs": [],
      "name": "myWaves",
      "outputs": [
        {
          "components": [
            {
              "internalType": "address",
              "name": "from",
              "type": "address"
            },
            {
              "internalType": "string",
              "name": "message",
              "type": "string"
            }
          ],
          "internalType": "struct WavePortal.Wave[]",
          "name": "",
          "type": "tuple[]"
        }
      ],
      "stateMutability": "view",
      "type": "function"
    },
    {
      "inputs": [],
      "name": "owner",
      "outputs": [
        {
          "internalType": "address",
          "name": "",
          "type": "address"
        }
      ],
      "stateMutability": "view",
      "type": "function"
    },
    {
      "inputs": [],
      "name": "renounceOwnership",
      "outputs": [],
      "stateMutability": "nonpayable",
      "type": "function"
    },
    {
      "inputs": [
        {
          "internalType": "uint256",
          "name": "_newPrize",
          "type": "uint256"
        }
      ],
      "name": "setReward",
      "outputs": [],
      "stateMutability": "nonpayable",
      "type": "function"
    },
    {
      "inputs": [],
      "name": "totalWaves",
      "outputs": [
        {
          "internalType": "uint256",
          "name": "_value",
          "type": "uint256"
        }
      ],
      "stateMutability": "view",
      "type": "function"
    },
    {
      "inputs": [
        {
          "internalType": "address",
          "name": "newOwner",
          "type": "address"
        }
      ],
      "name": "transferOwnership",
      "outputs": [],
      "stateMutability": "nonpayable",
      "type": "function"
    },
    {
      "inputs": [
        {
          "internalType": "string",
          "name": "_message",
          "type": "string"
        },
        {
          "internalType": "address",
          "name": "_to",
          "type": "address"
        }
      ],
      "name": "wave",
      "outputs": [],
      "stateMutability": "nonpayable",
      "type": "function"
    },
    {
      "inputs": [],
      "name": "wavesCount",
      "outputs": [
        {
          "internalType": "uint256",
          "name": "",
          "type": "uint256"
        }
      ],
      "stateMutability": "view",
      "type": "function"
    },
    {
      "inputs": [],
      "name": "withdraw",
      "outputs": [],
      "stateMutability": "nonpayable",
      "type": "function"
    }
  ],
  "bytecode": "0x608060405234801561001057600080fd5b5061002d61002261003260201b60201c565b61003a60201b60201c565b6100fe565b600033905090565b60008060009054906101000a900473ffffffffffffffffffffffffffffffffffffffff169050816000806101000a81548173ffffffffffffffffffffffffffffffffffffffff021916908373ffffffffffffffffffffffffffffffffffffffff1602179055508173ffffffffffffffffffffffffffffffffffffffff168173ffffffffffffffffffffffffffffffffffffffff167f8be0079c531659141344cd1fd0a4f28419497f9722a3daafe3b4186f6b6457e060405160405180910390a35050565b6116cf8061010d6000396000f3fe6080604052600436106100a75760003560e01c80634d9b3735116100645780634d9b3735146101965780635601a998146101c1578063715018a6146101ec5780638da5cb5b14610203578063b60d42881461022e578063f2fde38b14610238576100a7565b8063291bcab3146100ac578063293be456146100d757806337fe7a1a146101005780633ccfd60b1461012b5780633d18b9121461014257806343d29adb1461016d575b600080fd5b3480156100b857600080fd5b506100c1610261565b6040516100ce9190610db4565b60405180910390f35b3480156100e357600080fd5b506100fe60048036038101906100f99190610e0f565b61026d565b005b34801561010c57600080fd5b506101156102b7565b6040516101229190611015565b60405180910390f35b34801561013757600080fd5b5061014061043b565b005b34801561014e57600080fd5b506101576105f9565b6040516101649190610db4565b60405180910390f35b34801561017957600080fd5b50610194600480360381019061018f9190611198565b610643565b005b3480156101a257600080fd5b506101ab6109a5565b6040516101b89190610db4565b60405180910390f35b3480156101cd57600080fd5b506101d66109ef565b6040516101e39190610db4565b60405180910390f35b3480156101f857600080fd5b50610201610a00565b005b34801561020f57600080fd5b50610218610a14565b6040516102259190611203565b60405180910390f35b610236610a3d565b005b34801561024457600080fd5b5061025f600480360381019061025a919061121e565b610ada565b005b60018060000154905081565b80600360003373ffffffffffffffffffffffffffffffffffffffff1673ffffffffffffffffffffffffffffffffffffffff1681526020019081526020016000206000018190555050565b6060600260003373ffffffffffffffffffffffffffffffffffffffff1673ffffffffffffffffffffffffffffffffffffffff168152602001908152602001600020805480602002602001604051908101604052809291908181526020016000905b8282101561043257838290600052602060002090600202016040518060400160405290816000820160009054906101000a900473ffffffffffffffffffffffffffffffffffffffff1673ffffffffffffffffffffffffffffffffffffffff1673ffffffffffffffffffffffffffffffffffffffff1681526020016001820180546103a19061127a565b80601f01602080910402602001604051908101604052809291908181526020018280546103cd9061127a565b801561041a5780601f106103ef5761010080835404028352916020019161041a565b820191906000526020600020905b8154815290600101906020018083116103fd57829003601f168201915b50505050508152505081526020019060010190610318565b50505050905090565b47600360003373ffffffffffffffffffffffffffffffffffffffff1673ffffffffffffffffffffffffffffffffffffffff1681526020019081526020016000206001015411156104c0576040517f08c379a00000000000000000000000000000000000000000000000000000000081526004016104b79061132f565b60405180910390fd5b60003373ffffffffffffffffffffffffffffffffffffffff16600360003373ffffffffffffffffffffffffffffffffffffffff1673ffffffffffffffffffffffffffffffffffffffff1681526020019081526020016000206001015460405161052890611380565b60006040518083038185875af1925050503d8060008114610565576040519150601f19603f3d011682016040523d82523d6000602084013e61056a565b606091505b50509050806105ae576040517f08c379a00000000000000000000000000000000000000000000000000000000081526004016105a590611407565b60405180910390fd5b6000600360003373ffffffffffffffffffffffffffffffffffffffff1673ffffffffffffffffffffffffffffffffffffffff1681526020019081526020016000206001018190555050565b6000600360003373ffffffffffffffffffffffffffffffffffffffff1673ffffffffffffffffffffffffffffffffffffffff16815260200190815260200160002060000154905090565b61064d6001610b5e565b600060405180604001604052803373ffffffffffffffffffffffffffffffffffffffff1681526020018481525090506000600360008473ffffffffffffffffffffffffffffffffffffffff1673ffffffffffffffffffffffffffffffffffffffff168152602001908152602001600020604051806040016040529081600082015481526020016001820154815250509050600081600001511115610897574781600001511115801561070757508060200151816000015111155b610746576040517f08c379a000000000000000000000000000000000000000000000000000000000815260040161073d90611499565b60405180910390fd5b60003373ffffffffffffffffffffffffffffffffffffffff16826000015160405161077090611380565b60006040518083038185875af1925050503d80600081146107ad576040519150601f19603f3d011682016040523d82523d6000602084013e6107b2565b606091505b50509050806107f6576040517f08c379a00000000000000000000000000000000000000000000000000000000081526004016107ed90611407565b60405180910390fd5b61084f8260000151600360008773ffffffffffffffffffffffffffffffffffffffff1673ffffffffffffffffffffffffffffffffffffffff16815260200190815260200160002060010154610b7490919063ffffffff16565b600360008673ffffffffffffffffffffffffffffffffffffffff1673ffffffffffffffffffffffffffffffffffffffff16815260200190815260200160002060010181905550505b600260008473ffffffffffffffffffffffffffffffffffffffff1673ffffffffffffffffffffffffffffffffffffffff16815260200190815260200160002082908060018154018082558091505060019003906000526020600020906002020160009091909190915060008201518160000160006101000a81548173ffffffffffffffffffffffffffffffffffffffff021916908373ffffffffffffffffffffffffffffffffffffffff1602179055506020820151816001019080519060200190610963929190610cf8565b5050507f7336e193fa54eeaff51cf31a2f21239bf52948639e7894eee0eb660532e96a7733846040516109979291906114b9565b60405180910390a150505050565b6000600360003373ffffffffffffffffffffffffffffffffffffffff1673ffffffffffffffffffffffffffffffffffffffff16815260200190815260200160002060010154905090565b60006109fb6001610b8a565b905090565b610a08610b98565b610a126000610c16565b565b60008060009054906101000a900473ffffffffffffffffffffffffffffffffffffffff16905090565b610a9234600360003373ffffffffffffffffffffffffffffffffffffffff1673ffffffffffffffffffffffffffffffffffffffff16815260200190815260200160002060010154610cda90919063ffffffff16565b600360003373ffffffffffffffffffffffffffffffffffffffff1673ffffffffffffffffffffffffffffffffffffffff16815260200190815260200160002060010181905550565b610ae2610b98565b600073ffffffffffffffffffffffffffffffffffffffff168173ffffffffffffffffffffffffffffffffffffffff161415610b52576040517f08c379a0000000000000000000000000000000000000000000000000000000008152600401610b4990611554565b60405180910390fd5b610b5b81610c16565b50565b6001816000016000828254019250508190555050565b60008183610b8291906115a3565b905092915050565b600081600001549050919050565b610ba0610cf0565b73ffffffffffffffffffffffffffffffffffffffff16610bbe610a14565b73ffffffffffffffffffffffffffffffffffffffff1614610c14576040517f08c379a0000000000000000000000000000000000000000000000000000000008152600401610c0b90611623565b60405180910390fd5b565b60008060009054906101000a900473ffffffffffffffffffffffffffffffffffffffff169050816000806101000a81548173ffffffffffffffffffffffffffffffffffffffff021916908373ffffffffffffffffffffffffffffffffffffffff1602179055508173ffffffffffffffffffffffffffffffffffffffff168173ffffffffffffffffffffffffffffffffffffffff167f8be0079c531659141344cd1fd0a4f28419497f9722a3daafe3b4186f6b6457e060405160405180910390a35050565b60008183610ce89190611643565b905092915050565b600033905090565b828054610d049061127a565b90600052602060002090601f016020900481019282610d265760008555610d6d565b82601f10610d3f57805160ff1916838001178555610d6d565b82800160010185558215610d6d579182015b82811115610d6c578251825591602001919060010190610d51565b5b509050610d7a9190610d7e565b5090565b5b80821115610d97576000816000905550600101610d7f565b5090565b6000819050919050565b610dae81610d9b565b82525050565b6000602082019050610dc96000830184610da5565b92915050565b6000604051905090565b600080fd5b600080fd5b610dec81610d9b565b8114610df757600080fd5b50565b600081359050610e0981610de3565b92915050565b600060208284031215610e2557610e24610dd9565b5b6000610e3384828501610dfa565b91505092915050565b600081519050919050565b600082825260208201905092915050565b6000819050602082019050919050565b600073ffffffffffffffffffffffffffffffffffffffff82169050919050565b6000610e9382610e68565b9050919050565b610ea381610e88565b82525050565b600081519050919050565b600082825260208201905092915050565b60005b83811015610ee3578082015181840152602081019050610ec8565b83811115610ef2576000848401525b50505050565b6000601f19601f8301169050919050565b6000610f1482610ea9565b610f1e8185610eb4565b9350610f2e818560208601610ec5565b610f3781610ef8565b840191505092915050565b6000604083016000830151610f5a6000860182610e9a565b5060208301518482036020860152610f728282610f09565b9150508091505092915050565b6000610f8b8383610f42565b905092915050565b6000602082019050919050565b6000610fab82610e3c565b610fb58185610e47565b935083602082028501610fc785610e58565b8060005b858110156110035784840389528151610fe48582610f7f565b9450610fef83610f93565b925060208a01995050600181019050610fcb565b50829750879550505050505092915050565b6000602082019050818103600083015261102f8184610fa0565b905092915050565b600080fd5b600080fd5b7f4e487b7100000000000000000000000000000000000000000000000000000000600052604160045260246000fd5b61107982610ef8565b810181811067ffffffffffffffff8211171561109857611097611041565b5b80604052505050565b60006110ab610dcf565b90506110b78282611070565b919050565b600067ffffffffffffffff8211156110d7576110d6611041565b5b6110e082610ef8565b9050602081019050919050565b82818337600083830152505050565b600061110f61110a846110bc565b6110a1565b90508281526020810184848401111561112b5761112a61103c565b5b6111368482856110ed565b509392505050565b600082601f83011261115357611152611037565b5b81356111638482602086016110fc565b91505092915050565b61117581610e88565b811461118057600080fd5b50565b6000813590506111928161116c565b92915050565b600080604083850312156111af576111ae610dd9565b5b600083013567ffffffffffffffff8111156111cd576111cc610dde565b5b6111d98582860161113e565b92505060206111ea85828601611183565b9150509250929050565b6111fd81610e88565b82525050565b600060208201905061121860008301846111f4565b92915050565b60006020828403121561123457611233610dd9565b5b600061124284828501611183565b91505092915050565b7f4e487b7100000000000000000000000000000000000000000000000000000000600052602260045260246000fd5b6000600282049050600182168061129257607f821691505b602082108114156112a6576112a561124b565b5b50919050565b600082825260208201905092915050565b7f496e73756666696369656e742066756e647320666f722077697468647261776960008201527f6e67204554480000000000000000000000000000000000000000000000000000602082015250565b60006113196026836112ac565b9150611324826112bd565b604082019050919050565b600060208201905081810360008301526113488161130c565b9050919050565b600081905092915050565b50565b600061136a60008361134f565b91506113758261135a565b600082019050919050565b600061138b8261135d565b9150819050919050565b7f4661696c656420746f207769746864726177204554482074686f75676820746860008201527f652066756e6473206172652073756666696369656e7400000000000000000000602082015250565b60006113f16036836112ac565b91506113fc82611395565b604082019050919050565b60006020820190508181036000830152611420816113e4565b9050919050565b7f496e73756666696369656e742066756e647320666f722077697468647261776960008201527f6e67204554482061667465722057617665000000000000000000000000000000602082015250565b60006114836031836112ac565b915061148e82611427565b604082019050919050565b600060208201905081810360008301526114b281611476565b9050919050565b60006040820190506114ce60008301856111f4565b6114db60208301846111f4565b9392505050565b7f4f776e61626c653a206e6577206f776e657220697320746865207a65726f206160008201527f6464726573730000000000000000000000000000000000000000000000000000602082015250565b600061153e6026836112ac565b9150611549826114e2565b604082019050919050565b6000602082019050818103600083015261156d81611531565b9050919050565b7f4e487b7100000000000000000000000000000000000000000000000000000000600052601160045260246000fd5b60006115ae82610d9b565b91506115b983610d9b565b9250828210156115cc576115cb611574565b5b828203905092915050565b7f4f776e61626c653a2063616c6c6572206973206e6f7420746865206f776e6572600082015250565b600061160d6020836112ac565b9150611618826115d7565b602082019050919050565b6000602082019050818103600083015261163c81611600565b9050919050565b600061164e82610d9b565b915061165983610d9b565b9250827fffffffffffffffffffffffffffffffffffffffffffffffffffffffffffffffff0382111561168e5761168d611574565b5b82820190509291505056fea2646970667358221220c5fe91c9e512ee1d22ffab179f3af82e584e76e7d7c232c0be0027263c2a6f9364736f6c63430008090033",
  "linkReferences": {},
  "deployedLinkReferences": {}
}