{
  "_format": "hh-sol-artifact-1",
  "contractName": "WavePortal",
  "sourceName": "contracts/WavePortal.sol",
  "abi": [
    {
      "inputs": [],
      "stateMutability": "nonpayable",
      "type": "constructor"
    },
    {
      "anonymous": false,
      "inputs": [
        {
          "indexed": true,
          "internalType": "address",
          "name": "previousOwner",
          "type": "address"
        },
        {
          "indexed": true,
          "internalType": "address",
          "name": "newOwner",
          "type": "address"
        }
      ],
      "name": "OwnershipTransferred",
      "type": "event"
    },
    {
      "anonymous": false,
      "inputs": [
        {
          "indexed": false,
          "internalType": "address",
          "name": "from",
          "type": "address"
        },
        {
          "indexed": false,
          "internalType": "address",
          "name": "to",
          "type": "address"
        }
      ],
      "name": "UserWaved",
      "type": "event"
    },
    {
      "inputs": [],
      "name": "myWaves",
      "outputs": [
        {
          "components": [
            {
              "internalType": "address",
              "name": "from",
              "type": "address"
            },
            {
              "internalType": "string",
              "name": "message",
              "type": "string"
            }
          ],
          "internalType": "struct WavePortal.Wave[]",
          "name": "",
          "type": "tuple[]"
        }
      ],
      "stateMutability": "view",
      "type": "function"
    },
    {
      "inputs": [],
      "name": "owner",
      "outputs": [
        {
          "internalType": "address",
          "name": "",
          "type": "address"
        }
      ],
      "stateMutability": "view",
      "type": "function"
    },
    {
      "inputs": [],
      "name": "renounceOwnership",
      "outputs": [],
      "stateMutability": "nonpayable",
      "type": "function"
    },
    {
      "inputs": [],
      "name": "totalWaves",
      "outputs": [
        {
          "internalType": "uint256",
          "name": "_value",
          "type": "uint256"
        }
      ],
      "stateMutability": "view",
      "type": "function"
    },
    {
      "inputs": [
        {
          "internalType": "address",
          "name": "newOwner",
          "type": "address"
        }
      ],
      "name": "transferOwnership",
      "outputs": [],
      "stateMutability": "nonpayable",
      "type": "function"
    },
    {
      "inputs": [
        {
          "internalType": "string",
          "name": "_message",
          "type": "string"
        },
        {
          "internalType": "address",
          "name": "_to",
          "type": "address"
        }
      ],
      "name": "wave",
      "outputs": [],
      "stateMutability": "nonpayable",
      "type": "function"
    },
    {
      "inputs": [],
      "name": "wavesCount",
      "outputs": [
        {
          "internalType": "uint256",
          "name": "",
          "type": "uint256"
        }
      ],
      "stateMutability": "view",
      "type": "function"
    }
  ],
  "bytecode": "0x608060405234801561001057600080fd5b5061002d61002261003260201b60201c565b61003a60201b60201c565b6100fe565b600033905090565b60008060009054906101000a900473ffffffffffffffffffffffffffffffffffffffff169050816000806101000a81548173ffffffffffffffffffffffffffffffffffffffff021916908373ffffffffffffffffffffffffffffffffffffffff1602179055508173ffffffffffffffffffffffffffffffffffffffff168173ffffffffffffffffffffffffffffffffffffffff167f8be0079c531659141344cd1fd0a4f28419497f9722a3daafe3b4186f6b6457e060405160405180910390a35050565b610d1b8061010d6000396000f3fe608060405234801561001057600080fd5b506004361061007d5760003560e01c80635601a9981161005b5780635601a998146100da578063715018a6146100f85780638da5cb5b14610102578063f2fde38b146101205761007d565b8063291bcab31461008257806337fe7a1a146100a057806343d29adb146100be575b600080fd5b61008a61013c565b604051610097919061070e565b60405180910390f35b6100a8610148565b6040516100b59190610902565b60405180910390f35b6100d860048036038101906100d39190610a99565b6102cc565b005b6100e2610412565b6040516100ef919061070e565b60405180910390f35b610100610423565b005b61010a610437565b6040516101179190610b04565b60405180910390f35b61013a60048036038101906101359190610b1f565b610460565b005b60018060000154905081565b6060600260003373ffffffffffffffffffffffffffffffffffffffff1673ffffffffffffffffffffffffffffffffffffffff168152602001908152602001600020805480602002602001604051908101604052809291908181526020016000905b828210156102c357838290600052602060002090600202016040518060400160405290816000820160009054906101000a900473ffffffffffffffffffffffffffffffffffffffff1673ffffffffffffffffffffffffffffffffffffffff1673ffffffffffffffffffffffffffffffffffffffff16815260200160018201805461023290610b7b565b80601f016020809104026020016040519081016040528092919081815260200182805461025e90610b7b565b80156102ab5780601f10610280576101008083540402835291602001916102ab565b820191906000526020600020905b81548152906001019060200180831161028e57829003601f168201915b505050505081525050815260200190600101906101a9565b50505050905090565b6102d660016104e4565b600060405180604001604052803373ffffffffffffffffffffffffffffffffffffffff168152602001848152509050600260008373ffffffffffffffffffffffffffffffffffffffff1673ffffffffffffffffffffffffffffffffffffffff16815260200190815260200160002081908060018154018082558091505060019003906000526020600020906002020160009091909190915060008201518160000160006101000a81548173ffffffffffffffffffffffffffffffffffffffff021916908373ffffffffffffffffffffffffffffffffffffffff16021790555060208201518160010190805190602001906103d1929190610652565b5050507f7336e193fa54eeaff51cf31a2f21239bf52948639e7894eee0eb660532e96a773383604051610405929190610bad565b60405180910390a1505050565b600061041e60016104fa565b905090565b61042b610508565b6104356000610586565b565b60008060009054906101000a900473ffffffffffffffffffffffffffffffffffffffff16905090565b610468610508565b600073ffffffffffffffffffffffffffffffffffffffff168173ffffffffffffffffffffffffffffffffffffffff1614156104d8576040517f08c379a00000000000000000000000000000000000000000000000000000000081526004016104cf90610c59565b60405180910390fd5b6104e181610586565b50565b6001816000016000828254019250508190555050565b600081600001549050919050565b61051061064a565b73ffffffffffffffffffffffffffffffffffffffff1661052e610437565b73ffffffffffffffffffffffffffffffffffffffff1614610584576040517f08c379a000000000000000000000000000000000000000000000000000000000815260040161057b90610cc5565b60405180910390fd5b565b60008060009054906101000a900473ffffffffffffffffffffffffffffffffffffffff169050816000806101000a81548173ffffffffffffffffffffffffffffffffffffffff021916908373ffffffffffffffffffffffffffffffffffffffff1602179055508173ffffffffffffffffffffffffffffffffffffffff168173ffffffffffffffffffffffffffffffffffffffff167f8be0079c531659141344cd1fd0a4f28419497f9722a3daafe3b4186f6b6457e060405160405180910390a35050565b600033905090565b82805461065e90610b7b565b90600052602060002090601f01602090048101928261068057600085556106c7565b82601f1061069957805160ff19168380011785556106c7565b828001600101855582156106c7579182015b828111156106c65782518255916020019190600101906106ab565b5b5090506106d491906106d8565b5090565b5b808211156106f15760008160009055506001016106d9565b5090565b6000819050919050565b610708816106f5565b82525050565b600060208201905061072360008301846106ff565b92915050565b600081519050919050565b600082825260208201905092915050565b6000819050602082019050919050565b600073ffffffffffffffffffffffffffffffffffffffff82169050919050565b600061078082610755565b9050919050565b61079081610775565b82525050565b600081519050919050565b600082825260208201905092915050565b60005b838110156107d05780820151818401526020810190506107b5565b838111156107df576000848401525b50505050565b6000601f19601f8301169050919050565b600061080182610796565b61080b81856107a1565b935061081b8185602086016107b2565b610824816107e5565b840191505092915050565b60006040830160008301516108476000860182610787565b506020830151848203602086015261085f82826107f6565b9150508091505092915050565b6000610878838361082f565b905092915050565b6000602082019050919050565b600061089882610729565b6108a28185610734565b9350836020820285016108b485610745565b8060005b858110156108f057848403895281516108d1858261086c565b94506108dc83610880565b925060208a019950506001810190506108b8565b50829750879550505050505092915050565b6000602082019050818103600083015261091c818461088d565b905092915050565b6000604051905090565b600080fd5b600080fd5b600080fd5b600080fd5b7f4e487b7100000000000000000000000000000000000000000000000000000000600052604160045260246000fd5b61097a826107e5565b810181811067ffffffffffffffff8211171561099957610998610942565b5b80604052505050565b60006109ac610924565b90506109b88282610971565b919050565b600067ffffffffffffffff8211156109d8576109d7610942565b5b6109e1826107e5565b9050602081019050919050565b82818337600083830152505050565b6000610a10610a0b846109bd565b6109a2565b905082815260208101848484011115610a2c57610a2b61093d565b5b610a378482856109ee565b509392505050565b600082601f830112610a5457610a53610938565b5b8135610a648482602086016109fd565b91505092915050565b610a7681610775565b8114610a8157600080fd5b50565b600081359050610a9381610a6d565b92915050565b60008060408385031215610ab057610aaf61092e565b5b600083013567ffffffffffffffff811115610ace57610acd610933565b5b610ada85828601610a3f565b9250506020610aeb85828601610a84565b9150509250929050565b610afe81610775565b82525050565b6000602082019050610b196000830184610af5565b92915050565b600060208284031215610b3557610b3461092e565b5b6000610b4384828501610a84565b91505092915050565b7f4e487b7100000000000000000000000000000000000000000000000000000000600052602260045260246000fd5b60006002820490506001821680610b9357607f821691505b60208210811415610ba757610ba6610b4c565b5b50919050565b6000604082019050610bc26000830185610af5565b610bcf6020830184610af5565b9392505050565b600082825260208201905092915050565b7f4f776e61626c653a206e6577206f776e657220697320746865207a65726f206160008201527f6464726573730000000000000000000000000000000000000000000000000000602082015250565b6000610c43602683610bd6565b9150610c4e82610be7565b604082019050919050565b60006020820190508181036000830152610c7281610c36565b9050919050565b7f4f776e61626c653a2063616c6c6572206973206e6f7420746865206f776e6572600082015250565b6000610caf602083610bd6565b9150610cba82610c79565b602082019050919050565b60006020820190508181036000830152610cde81610ca2565b905091905056fea2646970667358221220cb257d96daf7e7b563dbe08ba3bd1df61873dfa047c202d7bab07a9b12a1d87764736f6c63430008090033",
  "linkReferences": {},
  "deployedLinkReferences": {}
}